S01300004C6564426C696E6B6572322E7372656303
S11300000C943E000C945B000C945B000C945B001D
S11300100C945B000C94F7020C945B000C945B0052
S11300200C945B000C945B000C945B000C945B00E0
S11300300C945B000C945B000C945B000C945B00D0
S11300400C945B000C945B000C945B000C945B00C0
S11300500C945B000C945B000C945B000C945B00B0
S11300600C945B000C94D3020C9438030C945B0046
S11300700C945B000C945B000C945B0011241FBE79
S1130080CFEFCDBFDFE3DEBF1CE3A0E0BCE3E6E8D7
S1130090FDE002C005900D92A233B107D9F72CE31D
S11300A0A2E3BCE301C01D92A436B207E1F70E94AB
S11300B060000C94AF060C9400000E94F8000895B0
S11300C00E945D00E4E5F4E08081887F83608083A2
S11300D010925D3CC0E080915D3C8111FCCF82E6D2
S11300E09DE80E94BD0385B1806885B925E186E15C
S11300F095E0215080409040E1F785B18F7785B934
S113010025E186E195E0215080409040E1F7CC2341
S113011021F089B1806189B903C089B18F7E89B921
S11301201F92CF9380E79DE89F938F930E94A7032C
S113013081E00F900F900F900F90C11180E0C82FB5
S1130140CACF80E0089580E00895789480E008950F
S113015080E008C0E82FF0E0E05FFB4F90819860FA
S113016090838F5F8830B0F380E008C0E82FF0E020
S1130170E05DFB4F9081986090838F5F8830B0F38F
S113018080E008C0E82FF0E0E05BFB4F90819860CE
S113019090838F5F8830B0F3089584B1877F84B9EA
S11301A0E3E3F4E08081877F808385B18B7F85B929
S11301B084B1846084B90E948B03089580B18B7FDD
S11301C080B9E2E1F4E08081877F808381B18D7F13
S11301D081B980B1826080B981B1877F81B980B1F2
S11301E0886080B90E942C0308950E94CC0208956F
S11301F00E94A80085B18F7785B984B1806884B9DD
S113020088B18F7E88B9E4E5F4E0808188608083DA
S11302100E94A3000E94CD000E94DE000E94A5005F
S11302200E942A030E94F5000E94A1000895E0E1C3
S1130230F8E0848188608483858181608583E2E33A
S1130240FCE380818E7F808313868EE00895E2E351
S1130250FCE380818E7F8083138680E00895E0E153
S1130260F8E08481836084830E9427010895E2E397
S1130270FCE3808188608083818190E0880F991FEE
S113028081608093170884E008950E9437010895DF
S11302900E9437010895E2E3FCE380818860808353
S11302A08181880F8093170883E008950E944B0191
S11302B00895A2E3BCE38C91877F8C9382E01B9624
S11302C08C931B975096ED91FC9151975C968D9170
S11302D09C915D970995823019F0833021F006C016
S11302E00E94480108950E94560108950E942F011A
S11302F00895E0E1F8E084818B7F848384E00895AD
S1130300E0E1F8E084818B7F848383E00895E0E179
S1130310F8E08481846084838481836084830E9480
S113032027010895E0E1F8E084818460848388E013
S113033008958091150884FF19C0A2E3BCE3529686
S1130340ED91FC9153975E968D919C915F970995E1
S1130350823019F0833021F006C00E9448010895CC
S11303600E94560108950E942F010895E2E3FCE3E0
S11303708081877F8083A281B381CD0101968283AE
S113038093838C9180931808848195810197848349
S11303909583892B11F083E0089585E00895CF9328
S11303A0DF93E2E3FCE38081877F8083848195810E
S11303B0019731F4E0E1F8E084818460848305C02E
S11303C0E0E1F8E084818B7F8483E2E3FCE38481D1
S11303D09581019784839583892BA9F0DF01C281DC
S11303E0D381E0E1F8E08085888312968D919C9119
S11303F01397019612968D939C9313978481826030
S1130400848384E026C0A2E3BCE31296ED91FC91C0
S1130410139780911808808312968D919C9113975D
S1130420019612968D939C9313978C9184608C9370
S11304301C96ED91FC911D9758968D919C9159971E
S113044009958250823018F40E94920102C00E94E1
S11304508701DF91CF9108958091150884FF19C019
S1130460A2E3BCE35296ED91FC9153975E968D9175
S11304709C915F970995823019F0833021F006C072
S11304800E94480108950E94560108950E942F0178
S11304900895A2E3BCE38C9184608C931C96ED9147
S11304A0FC911D9758968D919C915997099583308D
S11304B039F0843041F0823049F40E9448010895B3
S11304C00E94560108950E94990108950E942F01E7
S11304D00895E0E1F8E0858188608583A2E3BCE3C8
S11304E082E01B968C931B971E96ED91FC911F97AF
S11304F05A968D919C915B970995823019F08330BF
S113050021F006C00E94480108950E9456010895F2
S11305100E9417010895E0E1F8E0848188608483F3
S1130520858181608583E2E3FCE380818E7F808323
S113053082E083878EE00895CF93DF93E0E1F8E0D3
S11305408581806C85838091323C83FF07C08091D4
S1130550150884FF03C08FE080933C3C809115080C
S113056083FF03C080E180933C3C8091150882FFA7
S113057003C081E180933C3CC2E3DCE3EA85F0E024
S1130580EE0FFF1FE050F44C0190F081E02D09952F
S11305908A87DF91CF910895E0E1F8E08BE08683CC
S11305A081EC838308951F920F920FB60F9211244A
S11305B02F933F934F935F936F937F938F939F9367
S11305C0AF93BF93EF93FF930E949C02FF91EF912F
S11305D0BF91AF919F918F917F916F915F914F9157
S11305E03F912F910F900FBE0F901F9018951F925F
S11305F00F920FB60F9211242F933F934F935F9353
S11306006F937F938F939F93AF93BF93EF93FF93D6
S11306108BE79DE80E94BD038091490483FF09C0D4
S11306208BE79DE80E94BD03E0E4F4E081858860E7
S11306308187FF91EF91BF91AF919F918F917F91AE
S11306406F915F914F913F912F910F900FBE0F903B
S11306501F90189580E00895E0E2F8E081E280833D
S113066081E08283E6E5FCE3108215821682089518
S11306701F920F920FB60F9211242F933F934F9313
S11306805F936F937F938F939F93AF93BF93EF93F6
S1130690FF93E0E2F8E0948180E8838380915A3C00
S11306A0823029F0E091573CF091583C9083E6E584
S11306B0FCE3A181B2819D012F5F3F4F21833283EF
S11306C0813019F011969C9101C090E0E6E5FCE3BD
S11306D0838181508383882319F0909324080AC06E
S11306E0E6E5FCE383E080830580F681E02D309726
S11306F009F00995FF91EF91BF91AF919F918F916F
S11307007F916F915F914F913F912F910F900FBE09
S11307100F901F901895E0E0F8E08DE695E0808753
S1130720918780EC868384E29CE38093603C909381
S1130730613C80E008959091040895FFFCCF80937C
S1130740020808950E949B0380E090E00895A0E0D1
S1130750B0E0EDEAF3E00C948E06AE014B5F5F4F20
S1130760FA0161917191AF018091603C9091613C7B
S11307700E94ED03E2E00C94A7060F931F93CF931E
S1130780DF93E091603CF091613C238121FF1BC029
S11307908C01D0E0C0E0F80181918F016091603C50
S11307A07091613CDB011896ED91FC9119978823B7
S11307B031F00995892B79F3DFEFCFEFECCF8AE0A5
S11307C00995892B19F08FEF9FEF02C08D2F9C2F75
S11307D0DF91CF911F910F910895ABE0B0E0E3EF6B
S11307E0F3E00C947E066C017B018A01FC01168205
S11307F01782838181FFCCC1CE0101963C01F601B1
S11308009381F70193FD859193FF81917F01882363
S113081009F4BAC1853239F493FD859193FF81912E
S11308207F01853229F4B60190E00E94E405E7CF08
S1130830912C212C312CFFE1F315D8F08B3279F077
S113084038F4803279F08332A1F4232D20611DC065
S11308508D3261F0803369F4232D216016C0832D1D
S11308608260382EE32DE4603E2E2AC0F32DF8601A
S11308701DC037FC2DC020ED280F2A3040F08E32E9
S1130880B9F436FC81C1232D2064322E19C036FE02
S113089006C08AE0989E200D1124922E11C0EAE031
S11308A02E9E200D1124222EF32DF0623F2E08C01F
S11308B08C3621F4832D8068382E02C0883641F4AA
S11308C0F70193FD859193FF81917F018111B3CF4E
S11308D0982F9F7D9554933028F40C5F1F4F9FE30E
S11308E099830DC0833631F0833771F0833509F075
S11308F059C021C0F801808189830E5F1F4F88246D
S11309008394912C530113C02801F2E04F0E511C23
S1130910F801A080B18036FE03C0692D70E002C0EA
S11309206FEF7FEFC5010E94D9054C018201F32DC1
S1130930FF773F2E16C0280122E0420E511CF80119
S1130940A080B18036FE03C0692D70E002C06FEF55
S11309507FEFC5010E94CE054C01F32DF0683F2EB8
S1130960820133FC1BC0822D90E088169906B0F4F6
S1130970B60180E290E00E94E4052A94F4CFF501E8
S113098037FC859137FE81915F01B60190E00E94AA
S1130990E40521102A9421E0821A9108811491041B
S11309A071F7E8C0843611F0893641F5F80137FE55
S11309B007C060817181828193810C5F1F4F08C0E1
S11309C060817181072E000C880B990B0E5F1F4FFD
S11309D0F32DFF763F2E97FF09C090958095709573
S11309E061957F4F8F4F9F4FF0683F2E2AE030E094
S11309F0A3010E942006882E861845C0853731F44D
S1130A00232D2F7EB22E2AE030E025C0932D997F2E
S1130A10B92E8F36C1F018F4883579F0B5C0803717
S1130A2019F0883721F0B0C0E92FE061BE2EB4FE82
S1130A300DC0FB2DF460BF2E09C034FE0AC0292F5F
S1130A402660B22E06C028E030E005C020E130E088
S1130A5002C020E132E0F801B7FE07C06081718175
S1130A60828193810C5F1F4F06C06081718180E099
S1130A7090E00E5F1F4FA3010E942006882E861867
S1130A80FB2DFF773F2E36FE0DC0232D2E7FA22E89
S1130A90891458F434FE0BC032FC09C0832D8E7EB9
S1130AA0A82E05C0B82CA32C03C0B82C01C0B92CA7
S1130AB0A4FE0FC0FE01E80DF11D8081803321F4F6
S1130AC09A2D997EA92E09C0A2FE06C0B394B394B0
S1130AD004C08A2D867809F0B394A3FC11C0A0FE4B
S1130AE006C0B21488F4280C922C9B180EC0B214C1
S1130AF060F4B60180E290E00E94E405B394F7CF7D
S1130B00B21418F42B1802C0982C212CA4FE10C087
S1130B10B60180E390E00E94E405A2FE17C0A1FCA8
S1130B2003C088E790E002C088E590E0B6010CC0FD
S1130B308A2D867859F0A1FE02C08BE201C080E2C2
S1130B40A7FC8DE2B60190E00E94E405891438F414
S1130B50B60180E390E00E94E4059A94F7CF8A946A
S1130B60F301E80DF11D8081B60190E00E94E405D7
S1130B708110F5CF222009F442CEB60180E290E044
S1130B800E94E4052A94F6CFF6018681978102C07B
S1130B908FEF9FEF2B96E2E10C949706FC010590F2
S1130BA0615070400110D8F7809590958E0F9F1F6B
S1130BB00895FC016150704001900110D8F78095B0
S1130BC090958E0F9F1F08950F931F93CF93DF93DC
S1130BD0FB01238121FD03C08FEF9FEF2CC022FF77
S1130BE016C046815781248135814217530744F446
S1130BF0A081B1819D012F5F3F4F208331838C936E
S1130C00268137812F5F3F4F2683378314C08B01A2
S1130C10EC01FB010084F185E02D0995892BE1F6B7
S1130C20D80116968D919C911797019616968D93DF
S1130C309C931797CE01DF91CF911F910F91089547
S1130C40FA01AA27283051F1203181F1E8946F93F9
S1130C506E7F6E5F7F4F8F4F9F4FAF4FB1E03ED09F
S1130C60B4E03CD0670F781F891F9A1FA11D680F3D
S1130C70791F8A1F911DA11D6A0F711D811D911D70
S1130C80A11D20D009F468943F912AE0269F1124E5
S1130C903019305D3193DEF6CF010895462F477049
S1130CA0405D4193B3E00FD0C9F7F6CF462F4F70A4
S1130CB0405D4A3318F0495D31FD4052419302D002
S1130CC0A9F7EACFB4E0A6959795879577956795A8
S1130CD0BA95C9F700976105710508959B01AC01A8
S1130CE00A2E06945795479537952795BA95C9F7CF
S1130CF0620F731F841F951FA01D08952F923F92AA
S1130D004F925F926F927F928F929F92AF92BF9217
S1130D10CF92DF92EF92FF920F931F93CF93DF93C3
S1130D20CDB7DEB7CA1BDB0BCDBFDEBF09942A8863
S1130D30398848885F846E847D848C849B84AA84EB
S1130D40B984C884DF80EE80FD800C811B81AA8178
S1130D50B981CE0FD11DCDBFDEBFED010895F8944A
S1050D60FFCFBF
S1130D6248656C6C6F20576F726C64210D004C6582
S1130D7276656C2025750D0A00504F525443204964
S1070D8253520D00B7
S1130D86270137014B019901CF012C024801560175
S1130D9645012F017901800187019201170159014B
S1130DA669028B020000000200000000A20300009A
S1050DB6000037
S9030000FC
