S01300004C6564426C696E6B6572322E7372656303
S11300000C943E000C945B000C945B000C945B001D
S11300100C945B000C94E1020C945B000C945B0068
S11300200C945B000C945B000C945B000C945B00E0
S11300300C945B000C945B000C945B000C945B00D0
S11300400C945B000C945B000C945B000C945B00C0
S11300500C945B000C945B000C945B000C945B00B0
S11300600C945B000C94BD020C9431030C945B0063
S11300700C945B000C945B000C945B0011241FBE79
S1130080CFEFCDBFDFE3DEBF1CE3A0E0BCE3E5EBD5
S1130090F7E002C005900D92A233B107D9F72CE323
S11300A0A2E3BCE301C01D92A436B207E1F70E94AB
S11300B060000C94D0030C9400000E94D0000895BA
S11300C00E945D00E4E5F4E08081887F83608083A2
S11300D010925D3C80915D3C8111FCCF84EA97E8ED
S11300E00E94A00385B1806885B981E080935D3C5E
S11300F0F1CF80E0089580E00895789480E0089539
S113010080E008C0E82FF0E0E05FFB4F908198604A
S113011090838F5F8830B0F380E008C0E82FF0E070
S1130120E05DFB4F9081986090838F5F8830B0F3DF
S113013080E008C0E82FF0E0E05BFB4F908198601E
S113014090838F5F8830B0F3089584B1877F84B93A
S1130150E3E3F4E08081877F808385B18B7F85B979
S113016084B1846084B90E948403089580B18B7F34
S113017080B9E2E1F4E08081877F808381B18D7F63
S113018081B980B1826080B981B1877F81B980B142
S1130190886080B90E94250308950E94B6020895DC
S11301A00E94800081B18F7781B980B1806880B965
S11301B085B18F7B85B984B1806484B985B18F772B
S11301C085B984B1806884B989B1877F89B988B1D8
S11301D0886088B988B18F7E88B9E4E5F4E08081CD
S11301E0886080830E947B000E94A5000E94B60064
S11301F00E947D000E9423030E94CD000E9479008A
S11302000895E0E1F8E084818860848385818160D9
S11302108583E2E3FCE380818E7F808313868EE016
S11302200895E2E3FCE380818E7F8083138680E07F
S11302300895E0E1F8E08481836084830E941101E1
S11302400895E2E3FCE3808188608083818190E00B
S1130250880F991F81608093170884E008950E9495
S1130260210108950E9421010895E2E3FCE38081C5
S1130270886080838181880F8093170883E00895C4
S11302800E9435010895A2E3BCE38C91877F8C938F
S113029082E01B968C931B975096ED91FC9151979D
S11302A05C968D919C915D970995823019F083300D
S11302B021F006C00E94320108950E944001089571
S11302C00E9419010895E0E1F8E084818B7F848322
S11302D084E00895E0E1F8E084818B7F848383E007
S11302E00895E0E1F8E084818460848384818360FC
S11302F084830E9411010895E0E1F8E08481846020
S1130300848388E008958091150884FF19C0A2E3CE
S1130310BCE35296ED91FC9153975E968D919C911E
S11303205F970995823019F0833021F006C00E944E
S1130330320108950E94400108950E941901089510
S1130340E2E3FCE38081877F8083A281B381CD01D6
S11303500196828393838C9180931808848195817C
S1130360019784839583892B11F083E0089585E0B8
S11303700895CF93DF93E2E3FCE38081877F80835A
S113038084819581019731F4E0E1F8E0848184600F
S1130390848305C0E0E1F8E084818B7F8483E2E319
S11303A0FCE384819581019784839583892BA9F04B
S11303B0DF01C281D381E0E1F8E080858883129671
S11303C08D919C911397019612968D939C931397FC
S11303D084818260848384E026C0A2E3BCE3129615
S11303E0ED91FC91139780911808808312968D915A
S11303F09C911397019612968D939C9313978C91CD
S113040084608C931C96ED91FC911D9758968D9168
S11304109C91599709958250823018F40E947C016E
S113042002C00E947101DF91CF9108958091150857
S113043084FF19C0A2E3BCE35296ED91FC9153975B
S11304405E968D919C915F970995823019F0833067
S113045021F006C00E94320108950E9440010895CF
S11304600E9419010895A2E3BCE38C9184608C93EB
S11304701C96ED91FC911D9758968D919C915997DE
S11304800995833039F0843041F0823049F40E9478
S1130490320108950E94400108950E948301089545
S11304A00E9419010895E0E1F8E085818860858360
S11304B0A2E3BCE382E01B968C931B971E96ED91FE
S11304C0FC911F975A968D919C915B970995823068
S11304D019F0833021F006C00E94320108950E9471
S11304E0400108950E9401010895E0E1F8E084814B
S11304F088608483858181608583E2E3FCE3808175
S11305008E7F808382E083878EE00895CF93DF938C
S1130510E0E1F8E08581806C85838091323C83FF43
S113052007C08091150884FF03C08FE080933C3C92
S11305308091150883FF03C080E180933C3C809147
S1130540150882FF03C081E180933C3CC2E3DCE3F5
S1130550EA85F0E0EE0FFF1FE050F44C0190F081CB
S1130560E02D09958A87DF91CF910895E0E1F8E0C5
S11305708BE0868381EC838308951F920F920FB6DC
S11305800F9211242F933F934F935F936F937F9315
S11305908F939F93AF93BF93EF93FF930E94860231
S11305A0FF91EF91BF91AF919F918F917F916F9147
S11305B05F914F913F912F910F900FBE0F901F901D
S11305C018951F920F920FB60F9211242F933F93F9
S11305D04F935F936F937F938F939F93AF93BF9347
S11305E0EF93FF938AEA97E80E94A003809149045D
S11305F084FF18C08AEA97E80E94A00385B18F7728
S113060085B92FE78AE196E0215080409040E1F7D8
S113061000C0000085B1806885B9E0E4F4E081851C
S113062088608187FF91EF91BF91AF919F918F91E6
S11306307F916F915F914F913F912F910F900FBEDA
S11306400F901F90189580E00895E0E2F8E081E2B1
S1130650808381E08283E6E5FCE3108215821682C2
S113066008951F920F920FB60F9211242F933F9368
S11306704F935F936F937F938F939F93AF93BF93A6
S1130680EF93FF93E0E2F8E0948180E88383809124
S11306905A3C823029F0E091573CF091583C9083C9
S11306A0E6E5FCE3A181B2819D012F5F3F4F2183E9
S11306B03283813019F011969C9101C090E0E6E5F7
S11306C0FCE3838181508383882319F09093240869
S11306D00AC0E6E5FCE383E080830580F681E02D33
S11306E0309709F00995FF91EF91BF91AF919F91D8
S11306F08F917F916F915F914F913F912F910F90C7
S11307000FBE0F901F901895E0E0F8E08DE695E09D
S11307108087918780EC868384E29CE38093603CAD
S11307209093613C80E008959091040895FFFCCF7C
S11307308093020808950E94940380E090E0089555
S11307400F931F93CF93DF93E091603CF091613C52
S1130750238121FF1BC08C01D0E0C0E0F80181910E
S11307608F016091603C7091613CDB011896ED91C2
S1130770FC911997882331F00995892B79F3DFEFE0
S1130780CFEFECCF8AE00995892B19F08FEF9FEF1B
S113079002C08D2F9C2FDF91CF911F910F9108954F
S10707A0F894FFCFF7
S11307A4496E69740D00504F525443204953520DFD
S10407B40040
S11307B51101210135018301B901160232014001FC
S11307C52F01190163016A0171017C0101014301D2
S11307D55302750200000002000000009B030000A4
S10507E500000E
S9030000FC
